{
  "contractName": "EnergyHeaven",
  "abi": [
    {
      "inputs": [],
      "stateMutability": "nonpayable",
      "type": "constructor"
    },
    {
      "inputs": [],
      "name": "JOIN_AMOUNT",
      "outputs": [
        {
          "internalType": "uint256",
          "name": "",
          "type": "uint256"
        }
      ],
      "stateMutability": "view",
      "type": "function",
      "constant": true
    },
    {
      "inputs": [],
      "name": "PRICE",
      "outputs": [
        {
          "internalType": "uint256",
          "name": "",
          "type": "uint256"
        }
      ],
      "stateMutability": "view",
      "type": "function",
      "constant": true
    },
    {
      "inputs": [],
      "name": "REVERSE_EXC_VALUE",
      "outputs": [
        {
          "internalType": "uint256",
          "name": "",
          "type": "uint256"
        }
      ],
      "stateMutability": "view",
      "type": "function",
      "constant": true
    },
    {
      "inputs": [
        {
          "internalType": "address",
          "name": "",
          "type": "address"
        }
      ],
      "name": "energyList",
      "outputs": [
        {
          "internalType": "uint256",
          "name": "amount",
          "type": "uint256"
        },
        {
          "internalType": "uint256",
          "name": "price",
          "type": "uint256"
        }
      ],
      "stateMutability": "view",
      "type": "function",
      "constant": true
    },
    {
      "inputs": [],
      "name": "minter",
      "outputs": [
        {
          "internalType": "address payable",
          "name": "",
          "type": "address"
        }
      ],
      "stateMutability": "view",
      "type": "function",
      "constant": true
    },
    {
      "inputs": [],
      "name": "piggyBank",
      "outputs": [
        {
          "internalType": "uint256",
          "name": "",
          "type": "uint256"
        }
      ],
      "stateMutability": "view",
      "type": "function",
      "constant": true
    },
    {
      "inputs": [
        {
          "internalType": "address",
          "name": "",
          "type": "address"
        }
      ],
      "name": "userBalance",
      "outputs": [
        {
          "internalType": "uint256",
          "name": "",
          "type": "uint256"
        }
      ],
      "stateMutability": "view",
      "type": "function",
      "constant": true
    },
    {
      "inputs": [],
      "name": "join_as_producer",
      "outputs": [],
      "stateMutability": "nonpayable",
      "type": "function"
    },
    {
      "inputs": [],
      "name": "obtain_tokens",
      "outputs": [],
      "stateMutability": "payable",
      "type": "function",
      "payable": true
    },
    {
      "inputs": [
        {
          "internalType": "uint256",
          "name": "amount",
          "type": "uint256"
        }
      ],
      "name": "tokens_to_ETH",
      "outputs": [],
      "stateMutability": "payable",
      "type": "function",
      "payable": true
    },
    {
      "inputs": [],
      "name": "self_distruct",
      "outputs": [],
      "stateMutability": "nonpayable",
      "type": "function"
    },
    {
      "inputs": [
        {
          "internalType": "uint256",
          "name": "amount",
          "type": "uint256"
        },
        {
          "internalType": "uint256",
          "name": "price",
          "type": "uint256"
        }
      ],
      "name": "sell_energy",
      "outputs": [],
      "stateMutability": "nonpayable",
      "type": "function"
    },
    {
      "inputs": [
        {
          "internalType": "uint256",
          "name": "tokens",
          "type": "uint256"
        }
      ],
      "name": "buy_energy",
      "outputs": [
        {
          "internalType": "bool",
          "name": "result",
          "type": "bool"
        },
        {
          "internalType": "uint256",
          "name": "bought_amount",
          "type": "uint256"
        }
      ],
      "stateMutability": "nonpayable",
      "type": "function"
    }
  ],
  "bytecode": "0x60806040526103e860045534801561001657600080fd5b50336000806101000a81548173ffffffffffffffffffffffffffffffffffffffff021916908373ffffffffffffffffffffffffffffffffffffffff160217905550610f52806100666000396000f3fe6080604052600436106100c25760003560e01c8063b75ce3751161007f578063c7b21a4c11610059578063c7b21a4c1461022b578063d0d3ef3214610254578063d381e23914610292578063f0d3f5d6146102a9576100c2565b8063b75ce375146101ab578063b7d5d4c0146101e9578063bf81697714610214576100c2565b80630103c92b146100c757806307546172146101045780635430b6541461012f578063554669d614610139578063868345d9146101645780638d859f3e14610180575b600080fd5b3480156100d357600080fd5b506100ee60048036038101906100e99190610a50565b6102d4565b6040516100fb9190610a96565b60405180910390f35b34801561011057600080fd5b506101196102ec565b6040516101269190610ad2565b60405180910390f35b610137610310565b005b34801561014557600080fd5b5061014e6103c4565b60405161015b9190610a96565b60405180910390f35b61017e60048036038101906101799190610b19565b6103c9565b005b34801561018c57600080fd5b506101956104fc565b6040516101a29190610a96565b60405180910390f35b3480156101b757600080fd5b506101d260048036038101906101cd9190610b19565b610507565b6040516101e0929190610b61565b60405180910390f35b3480156101f557600080fd5b506101fe6106e3565b60405161020b9190610a96565b60405180910390f35b34801561022057600080fd5b506102296106e9565b005b34801561023757600080fd5b50610252600480360381019061024d9190610b8a565b6107b0565b005b34801561026057600080fd5b5061027b60048036038101906102769190610a50565b610866565b604051610289929190610bca565b60405180910390f35b34801561029e57600080fd5b506102a761088a565b005b3480156102b557600080fd5b506102be6109e3565b6040516102cb9190610a96565b60405180910390f35b60026020528060005260406000206000915090505481565b60008054906101000a900473ffffffffffffffffffffffffffffffffffffffff1681565b66071afd498d000034101561035a576040517f08c379a000000000000000000000000000000000000000000000000000000000815260040161035190610c50565b60405180910390fd5b66071afd498d00003461036d9190610cce565b600260003373ffffffffffffffffffffffffffffffffffffffff1673ffffffffffffffffffffffffffffffffffffffff16815260200190815260200160002060008282546103bb9190610cff565b92505081905550565b606481565b80600260003373ffffffffffffffffffffffffffffffffffffffff1673ffffffffffffffffffffffffffffffffffffffff16815260200190815260200160002054101561044b576040517f08c379a000000000000000000000000000000000000000000000000000000000815260040161044290610d7f565b60405180910390fd5b3373ffffffffffffffffffffffffffffffffffffffff166108fc6501d1a94a2000836104779190610d9f565b9081150290604051600060405180830381858888f193505050501580156104a2573d6000803e3d6000fd5b5080600260003373ffffffffffffffffffffffffffffffffffffffff1673ffffffffffffffffffffffffffffffffffffffff16815260200190815260200160002060008282546104f29190610de1565b9250508190555050565b66071afd498d000081565b60008060606000808511610550576040517f08c379a000000000000000000000000000000000000000000000000000000000815260040161054790610e61565b60405180910390fd5b6000925060005b818611156106d75760016003600085848151811061057857610577610e81565b5b602002602001015173ffffffffffffffffffffffffffffffffffffffff1673ffffffffffffffffffffffffffffffffffffffff16815260200190815260200160002060000160008282546105cc9190610de1565b925050819055506001846105e09190610cff565b935081600260008584815181106105fa576105f9610e81565b5b602002602001015173ffffffffffffffffffffffffffffffffffffffff1673ffffffffffffffffffffffffffffffffffffffff168152602001908152602001600020600082825461064b9190610cff565b9250508190555081600260003373ffffffffffffffffffffffffffffffffffffffff1673ffffffffffffffffffffffffffffffffffffffff16815260200190815260200160002060008282546106a19190610de1565b9250508190555081866106b49190610de1565b95506001816106c39190610cff565b9050825181106106d257600090505b610557565b60019450505050915091565b60045481565b60008054906101000a900473ffffffffffffffffffffffffffffffffffffffff1673ffffffffffffffffffffffffffffffffffffffff163373ffffffffffffffffffffffffffffffffffffffff1614610777576040517f08c379a000000000000000000000000000000000000000000000000000000000815260040161076e90610efc565b60405180910390fd5b60008054906101000a900473ffffffffffffffffffffffffffffffffffffffff1673ffffffffffffffffffffffffffffffffffffffff16ff5b81600360003373ffffffffffffffffffffffffffffffffffffffff1673ffffffffffffffffffffffffffffffffffffffff16815260200190815260200160002060000160008282546108029190610cff565b9250508190555080600360003373ffffffffffffffffffffffffffffffffffffffff1673ffffffffffffffffffffffffffffffffffffffff168152602001908152602001600020600101600082825461085b9190610cff565b925050819055505050565b60036020528060005260406000206000915090508060000154908060010154905082565b6064600260003373ffffffffffffffffffffffffffffffffffffffff1673ffffffffffffffffffffffffffffffffffffffff16815260200190815260200160002054101561090d576040517f08c379a000000000000000000000000000000000000000000000000000000000815260040161090490610e61565b60405180910390fd5b6064600260003373ffffffffffffffffffffffffffffffffffffffff1673ffffffffffffffffffffffffffffffffffffffff168152602001908152602001600020600082825461095d9190610de1565b925050819055506064600460008282546109779190610cff565b925050819055506001339080600181540180825580915050600190039060005260206000200160009091909190916101000a81548173ffffffffffffffffffffffffffffffffffffffff021916908373ffffffffffffffffffffffffffffffffffffffff160217905550565b6501d1a94a200081565b600080fd5b600073ffffffffffffffffffffffffffffffffffffffff82169050919050565b6000610a1d826109f2565b9050919050565b610a2d81610a12565b8114610a3857600080fd5b50565b600081359050610a4a81610a24565b92915050565b600060208284031215610a6657610a656109ed565b5b6000610a7484828501610a3b565b91505092915050565b6000819050919050565b610a9081610a7d565b82525050565b6000602082019050610aab6000830184610a87565b92915050565b6000610abc826109f2565b9050919050565b610acc81610ab1565b82525050565b6000602082019050610ae76000830184610ac3565b92915050565b610af681610a7d565b8114610b0157600080fd5b50565b600081359050610b1381610aed565b92915050565b600060208284031215610b2f57610b2e6109ed565b5b6000610b3d84828501610b04565b91505092915050565b60008115159050919050565b610b5b81610b46565b82525050565b6000604082019050610b766000830185610b52565b610b836020830184610a87565b9392505050565b60008060408385031215610ba157610ba06109ed565b5b6000610baf85828601610b04565b9250506020610bc085828601610b04565b9150509250929050565b6000604082019050610bdf6000830185610a87565b610bec6020830184610a87565b9392505050565b600082825260208201905092915050565b7f4e6f7420656e6f7567682076616c756520666f72206120746f6b656e00000000600082015250565b6000610c3a601c83610bf3565b9150610c4582610c04565b602082019050919050565b60006020820190508181036000830152610c6981610c2d565b9050919050565b7f4e487b7100000000000000000000000000000000000000000000000000000000600052601260045260246000fd5b7f4e487b7100000000000000000000000000000000000000000000000000000000600052601160045260246000fd5b6000610cd982610a7d565b9150610ce483610a7d565b925082610cf457610cf3610c70565b5b828204905092915050565b6000610d0a82610a7d565b9150610d1583610a7d565b9250828201905080821115610d2d57610d2c610c9f565b5b92915050565b7f4e6f7420656e6f75676820746f6b656e7320746f20636f6e7665727400000000600082015250565b6000610d69601c83610bf3565b9150610d7482610d33565b602082019050919050565b60006020820190508181036000830152610d9881610d5c565b9050919050565b6000610daa82610a7d565b9150610db583610a7d565b9250828202610dc381610a7d565b91508282048414831517610dda57610dd9610c9f565b5b5092915050565b6000610dec82610a7d565b9150610df783610a7d565b9250828203905081811115610e0f57610e0e610c9f565b5b92915050565b7f4e6f7420656e6f75676820746f6b656e73000000000000000000000000000000600082015250565b6000610e4b601183610bf3565b9150610e5682610e15565b602082019050919050565b60006020820190508181036000830152610e7a81610e3e565b9050919050565b7f4e487b7100000000000000000000000000000000000000000000000000000000600052603260045260246000fd5b7f596f75277265206e6f7420746865206d696e7465720000000000000000000000600082015250565b6000610ee6601583610bf3565b9150610ef182610eb0565b602082019050919050565b60006020820190508181036000830152610f1581610ed9565b905091905056fea26469706673582212203a21d675ed8da88d1a329d6f46d0957b0225243b5f9eab3c9fcd89ed84618e1e64736f6c63430008110033",
  "immutableReferences": {},
  "source": "// SPDX-License-Identifier: CC-BY-SA-4.0\r\npragma solidity >=0.4.0 <0.9.0;\r\n\r\ncontract EnergyHeaven{\r\n    address payable public minter;\r\n\r\n    address[] producers;\r\n    mapping(address => uint) public userBalance; // balance dei token di ogni utente\r\n\r\n\r\n    struct Selling {\r\n        uint amount;\r\n        uint price;\r\n    }\r\n    mapping(address => Selling) public energyList; // listino vendita\r\n\r\n    uint public piggyBank = 1000;\r\n\r\n    uint public constant JOIN_AMOUNT = 100; // quota iniziale per entrare a far parte dei venditori\r\n    uint public constant PRICE = 2 * 1e15; // 2 x 10^{15}. IE 2 finney\r\n    uint public constant REVERSE_EXC_VALUE = 2 * 1e12; // 2 x 10^{12}. IE 2 SZABO\r\n\r\n    constructor(){\r\n        minter = payable(msg.sender);\r\n    }\r\n\r\n    function join_as_producer() public{\r\n        require(userBalance[msg.sender] >= JOIN_AMOUNT, \"Not enough tokens\");\r\n        //require(!producers.contains(msg.sender), \"Already a producer\"); non esiste il metodo contains. trovare alternativa\r\n        userBalance[msg.sender] -= JOIN_AMOUNT;\r\n        piggyBank += JOIN_AMOUNT;\r\n        producers.push(msg.sender);\r\n    }\r\n\r\n    function obtain_tokens() public payable{\r\n        require(msg.value >= PRICE, \"Not enough value for a token\");\r\n        userBalance[msg.sender] += msg.value / PRICE;\r\n    }\r\n\r\n    function tokens_to_ETH(uint amount) public payable{\r\n        require(userBalance[msg.sender] >= amount, \"Not enough tokens to convert\");\r\n        payable(msg.sender).transfer(amount*REVERSE_EXC_VALUE);\r\n        //(bool sent, bytes memory data) = msg.sender.call{value: amount*REVERSE_EXC_VALUE}(\"\");\r\n        //require(sent, \"Failed to send Ether\");\r\n        userBalance[msg.sender] -= amount;\r\n        \r\n    }\r\n\r\n    function self_distruct() public{\r\n        require(msg.sender == minter, \"You're not the minter\");\r\n        selfdestruct(minter);\r\n    }    \r\n\r\n    function sell_energy(uint amount, uint price) public{\r\n        //require(producers.contains(msg.sender), \"You're not a producer\");   non esiste il metodo contains. trovare alternativa\r\n        energyList[msg.sender].amount += amount;\r\n        energyList[msg.sender].price += price;\r\n    }\r\n\r\n    function buy_energy(uint tokens) public returns (bool result, uint bought_amount){\r\n       \r\n        // prendere il multiple return di find_cheapest \r\n        address[] memory cheapest;\r\n        uint price;\r\n        // address cheapest[] = find_cheapest();\r\n        // price\r\n        \r\n        require(tokens>price, \"Not enough tokens\");\r\n        bought_amount = 0;\r\n        uint i = 0;\r\n        while(tokens > price){\r\n            energyList[cheapest[i]].amount -= 1;\r\n            bought_amount += 1;\r\n            userBalance[cheapest[i]] += price;\r\n            userBalance[msg.sender] -= price;\r\n            tokens -= price;\r\n            i += 1;\r\n            if(i>=cheapest.length) i=0;\r\n        }  \r\n\r\n        return (true, bought_amount);\r\n    }\r\n\r\n    /*\r\n    fuction find_cheapest() private returns(address[] memory cheapest, uint memory price) {\r\n        //ritorna tutti i producers che stanno vendendo ad un minor prezzo in un array e il prezzo\r\n        uint price;\r\n        address[] cheapest;\r\n        return(cheapest, price)\r\n    }\r\n    */\r\n}",
  "sourcePath": "C:\\Users\\simon\\Desktop\\progetto Blockchain\\EnergyHeaven\\Dapp-EnergyHeaven\\contracts\\EnergyHeaven.sol",
  "compiler": {
    "name": "solc",
    "version": "0.8.17+commit.8df45f5f.Emscripten.clang"
  },
  "schemaVersion": "3.4.11",
  "updatedAt": "2022-12-24T15:24:35.424Z",
  "networkType": "ethereum",
  "devdoc": {
    "kind": "dev",
    "methods": {},
    "version": 1
  },
  "userdoc": {
    "kind": "user",
    "methods": {},
    "version": 1
  }
}