{
  "contractName": "EnergyHeaven",
  "abi": [
    {
      "inputs": [],
      "stateMutability": "nonpayable",
      "type": "constructor"
    },
    {
      "anonymous": false,
      "inputs": [
        {
          "indexed": false,
          "internalType": "address",
          "name": "buyer",
          "type": "address"
        },
        {
          "indexed": false,
          "internalType": "uint256",
          "name": "tokens",
          "type": "uint256"
        }
      ],
      "name": "Acquiring",
      "type": "event"
    },
    {
      "inputs": [],
      "name": "JOIN_AMOUNT",
      "outputs": [
        {
          "internalType": "uint256",
          "name": "",
          "type": "uint256"
        }
      ],
      "stateMutability": "view",
      "type": "function"
    },
    {
      "inputs": [],
      "name": "PRICE",
      "outputs": [
        {
          "internalType": "uint256",
          "name": "",
          "type": "uint256"
        }
      ],
      "stateMutability": "view",
      "type": "function"
    },
    {
      "inputs": [],
      "name": "REVERSE_EXC_VALUE",
      "outputs": [
        {
          "internalType": "uint256",
          "name": "",
          "type": "uint256"
        }
      ],
      "stateMutability": "view",
      "type": "function"
    },
    {
      "inputs": [
        {
          "internalType": "address",
          "name": "",
          "type": "address"
        }
      ],
      "name": "energyList",
      "outputs": [
        {
          "internalType": "uint256",
          "name": "amount",
          "type": "uint256"
        },
        {
          "internalType": "uint256",
          "name": "price",
          "type": "uint256"
        }
      ],
      "stateMutability": "view",
      "type": "function"
    },
    {
      "inputs": [],
      "name": "minter",
      "outputs": [
        {
          "internalType": "address payable",
          "name": "",
          "type": "address"
        }
      ],
      "stateMutability": "view",
      "type": "function"
    },
    {
      "inputs": [],
      "name": "piggyBank",
      "outputs": [
        {
          "internalType": "uint256",
          "name": "",
          "type": "uint256"
        }
      ],
      "stateMutability": "view",
      "type": "function"
    },
    {
      "inputs": [
        {
          "internalType": "address",
          "name": "",
          "type": "address"
        }
      ],
      "name": "userBalance",
      "outputs": [
        {
          "internalType": "uint256",
          "name": "",
          "type": "uint256"
        }
      ],
      "stateMutability": "view",
      "type": "function"
    },
    {
      "inputs": [],
      "name": "join_as_producer",
      "outputs": [],
      "stateMutability": "nonpayable",
      "type": "function"
    },
    {
      "inputs": [],
      "name": "obtain_tokens",
      "outputs": [],
      "stateMutability": "payable",
      "type": "function"
    },
    {
      "inputs": [
        {
          "internalType": "uint256",
          "name": "amount",
          "type": "uint256"
        }
      ],
      "name": "tokens_to_ETH",
      "outputs": [],
      "stateMutability": "payable",
      "type": "function"
    },
    {
      "inputs": [],
      "name": "self_distruct",
      "outputs": [],
      "stateMutability": "nonpayable",
      "type": "function"
    },
    {
      "inputs": [
        {
          "internalType": "uint256",
          "name": "amount",
          "type": "uint256"
        },
        {
          "internalType": "uint256",
          "name": "price",
          "type": "uint256"
        }
      ],
      "name": "sell_energy",
      "outputs": [],
      "stateMutability": "nonpayable",
      "type": "function"
    },
    {
      "inputs": [
        {
          "internalType": "uint256",
          "name": "tokens",
          "type": "uint256"
        }
      ],
      "name": "buy_energy",
      "outputs": [
        {
          "internalType": "bool",
          "name": "result",
          "type": "bool"
        },
        {
          "internalType": "uint256",
          "name": "bought_amount",
          "type": "uint256"
        }
      ],
      "stateMutability": "nonpayable",
      "type": "function"
    }
  ],
  "bytecode": "0x60806040526103e860045534801561001657600080fd5b50336000806101000a81548173ffffffffffffffffffffffffffffffffffffffff021916908373ffffffffffffffffffffffffffffffffffffffff1602179055506112a4806100666000396000f3fe6080604052600436106100c25760003560e01c8063b75ce3751161007f578063c7b21a4c11610059578063c7b21a4c1461022b578063d0d3ef3214610254578063d381e23914610292578063f0d3f5d6146102a9576100c2565b8063b75ce375146101ab578063b7d5d4c0146101e9578063bf81697714610214576100c2565b80630103c92b146100c757806307546172146101045780635430b6541461012f578063554669d614610139578063868345d9146101645780638d859f3e14610180575b600080fd5b3480156100d357600080fd5b506100ee60048036038101906100e99190610c4a565b6102d4565b6040516100fb9190610c90565b60405180910390f35b34801561011057600080fd5b506101196102ec565b6040516101269190610ccc565b60405180910390f35b610137610310565b005b34801561014557600080fd5b5061014e610403565b60405161015b9190610c90565b60405180910390f35b61017e60048036038101906101799190610d13565b610408565b005b34801561018c57600080fd5b5061019561053b565b6040516101a29190610c90565b60405180910390f35b3480156101b757600080fd5b506101d260048036038101906101cd9190610d13565b610546565b6040516101e0929190610d5b565b60405180910390f35b3480156101f557600080fd5b506101fe610722565b60405161020b9190610c90565b60405180910390f35b34801561022057600080fd5b50610229610728565b005b34801561023757600080fd5b50610252600480360381019061024d9190610d84565b6107ef565b005b34801561026057600080fd5b5061027b60048036038101906102769190610c4a565b6108db565b604051610289929190610dc4565b60405180910390f35b34801561029e57600080fd5b506102a76108ff565b005b3480156102b557600080fd5b506102be610b2f565b6040516102cb9190610c90565b60405180910390f35b60026020528060005260406000206000915090505481565b60008054906101000a900473ffffffffffffffffffffffffffffffffffffffff1681565b66071afd498d000034101561035a576040517f08c379a000000000000000000000000000000000000000000000000000000000815260040161035190610e4a565b60405180910390fd5b600066071afd498d00003461036f9190610ec8565b905080600260003373ffffffffffffffffffffffffffffffffffffffff1673ffffffffffffffffffffffffffffffffffffffff16815260200190815260200160002060008282546103c09190610ef9565b925050819055507f7750ff187301db10614e7257208aa1f654255c4562a6e163af153f93999b675333826040516103f8929190610f3c565b60405180910390a150565b606481565b80600260003373ffffffffffffffffffffffffffffffffffffffff1673ffffffffffffffffffffffffffffffffffffffff16815260200190815260200160002054101561048a576040517f08c379a000000000000000000000000000000000000000000000000000000000815260040161048190610fb1565b60405180910390fd5b3373ffffffffffffffffffffffffffffffffffffffff166108fc6501d1a94a2000836104b69190610fd1565b9081150290604051600060405180830381858888f193505050501580156104e1573d6000803e3d6000fd5b5080600260003373ffffffffffffffffffffffffffffffffffffffff1673ffffffffffffffffffffffffffffffffffffffff16815260200190815260200160002060008282546105319190611013565b9250508190555050565b66071afd498d000081565b6000806060600080851161058f576040517f08c379a000000000000000000000000000000000000000000000000000000000815260040161058690611093565b60405180910390fd5b6000925060005b81861115610716576001600360008584815181106105b7576105b66110b3565b5b602002602001015173ffffffffffffffffffffffffffffffffffffffff1673ffffffffffffffffffffffffffffffffffffffff168152602001908152602001600020600001600082825461060b9190611013565b9250508190555060018461061f9190610ef9565b93508160026000858481518110610639576106386110b3565b5b602002602001015173ffffffffffffffffffffffffffffffffffffffff1673ffffffffffffffffffffffffffffffffffffffff168152602001908152602001600020600082825461068a9190610ef9565b9250508190555081600260003373ffffffffffffffffffffffffffffffffffffffff1673ffffffffffffffffffffffffffffffffffffffff16815260200190815260200160002060008282546106e09190611013565b9250508190555081866106f39190611013565b95506001816107029190610ef9565b90508251811061071157600090505b610596565b60019450505050915091565b60045481565b60008054906101000a900473ffffffffffffffffffffffffffffffffffffffff1673ffffffffffffffffffffffffffffffffffffffff163373ffffffffffffffffffffffffffffffffffffffff16146107b6576040517f08c379a00000000000000000000000000000000000000000000000000000000081526004016107ad9061112e565b60405180910390fd5b60008054906101000a900473ffffffffffffffffffffffffffffffffffffffff1673ffffffffffffffffffffffffffffffffffffffff16ff5b6107f833610b39565b610837576040517f08c379a000000000000000000000000000000000000000000000000000000000815260040161082e9061119a565b60405180910390fd5b81600360003373ffffffffffffffffffffffffffffffffffffffff1673ffffffffffffffffffffffffffffffffffffffff16815260200190815260200160002060000160008282546108899190610ef9565b9250508190555080600360003373ffffffffffffffffffffffffffffffffffffffff1673ffffffffffffffffffffffffffffffffffffffff168152602001908152602001600020600101819055505050565b60036020528060005260406000206000915090508060000154908060010154905082565b6064600260003373ffffffffffffffffffffffffffffffffffffffff1673ffffffffffffffffffffffffffffffffffffffff168152602001908152602001600020541015610982576040517f08c379a000000000000000000000000000000000000000000000000000000000815260040161097990611093565b60405180910390fd5b60005b600180549050811015610a58573373ffffffffffffffffffffffffffffffffffffffff16600182815481106109bd576109bc6110b3565b5b9060005260206000200160009054906101000a900473ffffffffffffffffffffffffffffffffffffffff1673ffffffffffffffffffffffffffffffffffffffff1603610a45576000610a44576040517f08c379a0000000000000000000000000000000000000000000000000000000008152600401610a3b90611206565b60405180910390fd5b5b8080610a5090611226565b915050610985565b506064600260003373ffffffffffffffffffffffffffffffffffffffff1673ffffffffffffffffffffffffffffffffffffffff1681526020019081526020016000206000828254610aa99190611013565b92505081905550606460046000828254610ac39190610ef9565b925050819055506001339080600181540180825580915050600190039060005260206000200160009091909190916101000a81548173ffffffffffffffffffffffffffffffffffffffff021916908373ffffffffffffffffffffffffffffffffffffffff160217905550565b6501d1a94a200081565b600080600090505b600180549050811015610bdc578273ffffffffffffffffffffffffffffffffffffffff1660018281548110610b7957610b786110b3565b5b9060005260206000200160009054906101000a900473ffffffffffffffffffffffffffffffffffffffff1673ffffffffffffffffffffffffffffffffffffffff1603610bc9576001915050610be2565b8080610bd490611226565b915050610b41565b50600090505b919050565b600080fd5b600073ffffffffffffffffffffffffffffffffffffffff82169050919050565b6000610c1782610bec565b9050919050565b610c2781610c0c565b8114610c3257600080fd5b50565b600081359050610c4481610c1e565b92915050565b600060208284031215610c6057610c5f610be7565b5b6000610c6e84828501610c35565b91505092915050565b6000819050919050565b610c8a81610c77565b82525050565b6000602082019050610ca56000830184610c81565b92915050565b6000610cb682610bec565b9050919050565b610cc681610cab565b82525050565b6000602082019050610ce16000830184610cbd565b92915050565b610cf081610c77565b8114610cfb57600080fd5b50565b600081359050610d0d81610ce7565b92915050565b600060208284031215610d2957610d28610be7565b5b6000610d3784828501610cfe565b91505092915050565b60008115159050919050565b610d5581610d40565b82525050565b6000604082019050610d706000830185610d4c565b610d7d6020830184610c81565b9392505050565b60008060408385031215610d9b57610d9a610be7565b5b6000610da985828601610cfe565b9250506020610dba85828601610cfe565b9150509250929050565b6000604082019050610dd96000830185610c81565b610de66020830184610c81565b9392505050565b600082825260208201905092915050565b7f4e6f7420656e6f7567682076616c756520666f72206120746f6b656e00000000600082015250565b6000610e34601c83610ded565b9150610e3f82610dfe565b602082019050919050565b60006020820190508181036000830152610e6381610e27565b9050919050565b7f4e487b7100000000000000000000000000000000000000000000000000000000600052601260045260246000fd5b7f4e487b7100000000000000000000000000000000000000000000000000000000600052601160045260246000fd5b6000610ed382610c77565b9150610ede83610c77565b925082610eee57610eed610e6a565b5b828204905092915050565b6000610f0482610c77565b9150610f0f83610c77565b9250828201905080821115610f2757610f26610e99565b5b92915050565b610f3681610c0c565b82525050565b6000604082019050610f516000830185610f2d565b610f5e6020830184610c81565b9392505050565b7f4e6f7420656e6f75676820746f6b656e7320746f20636f6e7665727400000000600082015250565b6000610f9b601c83610ded565b9150610fa682610f65565b602082019050919050565b60006020820190508181036000830152610fca81610f8e565b9050919050565b6000610fdc82610c77565b9150610fe783610c77565b9250828202610ff581610c77565b9150828204841483151761100c5761100b610e99565b5b5092915050565b600061101e82610c77565b915061102983610c77565b925082820390508181111561104157611040610e99565b5b92915050565b7f4e6f7420656e6f75676820746f6b656e73000000000000000000000000000000600082015250565b600061107d601183610ded565b915061108882611047565b602082019050919050565b600060208201905081810360008301526110ac81611070565b9050919050565b7f4e487b7100000000000000000000000000000000000000000000000000000000600052603260045260246000fd5b7f596f75277265206e6f7420746865206d696e7465720000000000000000000000600082015250565b6000611118601583610ded565b9150611123826110e2565b602082019050919050565b600060208201905081810360008301526111478161110b565b9050919050565b7f596f75277265206e6f7420612070726f64756365720000000000000000000000600082015250565b6000611184601583610ded565b915061118f8261114e565b602082019050919050565b600060208201905081810360008301526111b381611177565b9050919050565b7f416c726561647920612070726f64756365720000000000000000000000000000600082015250565b60006111f0601283610ded565b91506111fb826111ba565b602082019050919050565b6000602082019050818103600083015261121f816111e3565b9050919050565b600061123182610c77565b91507fffffffffffffffffffffffffffffffffffffffffffffffffffffffffffffffff820361126357611262610e99565b5b60018201905091905056fea26469706673582212208638c35b838d3398196a27832650bc0763ba6c9dbd7b0da5c20d12a97c97aac064736f6c63430008110033",
  "immutableReferences": {},
  "source": "// SPDX-License-Identifier: CC-BY-SA-4.0\r\npragma solidity >=0.4.0 <0.9.0;\r\n\r\ncontract EnergyHeaven{\r\n    address payable public minter;\r\n\r\n    address[] producers;\r\n    mapping(address => uint) public userBalance; // balance dei token di ogni utente\r\n\r\n\r\n    struct Selling {\r\n        uint amount;\r\n        uint price;\r\n    }\r\n    mapping(address => Selling) public energyList; // listino vendita\r\n\r\n    uint public piggyBank = 1000;\r\n\r\n    uint public constant JOIN_AMOUNT = 100; // quota iniziale per entrare a far parte dei venditori\r\n    uint public constant PRICE = 2 * 1e15; // 2 x 10^{15}. IE 2 finney\r\n    uint public constant REVERSE_EXC_VALUE = 2 * 1e12; // 2 x 10^{12}. IE 2 SZABO\r\n\r\n    event Acquiring(address buyer, uint tokens);\r\n\r\n    constructor(){\r\n        minter = payable(msg.sender);\r\n    }\r\n\r\n    function join_as_producer() public{\r\n        require(userBalance[msg.sender] >= JOIN_AMOUNT, \"Not enough tokens\");\r\n        //require(!producers.contains(msg.sender), \"Already a producer\"); non esiste il metodo contains. trovare alternativa\r\n        \r\n        //scorro array per vedere se esiste indirizzo corrispondente a quello fornito\r\n        for(uint i = 0; i < producers.length; i++){\r\n            if(producers[i] == msg.sender){\r\n                require(false, \"Already a producer\");\r\n            }\r\n        }\r\n        \r\n        userBalance[msg.sender] -= JOIN_AMOUNT;\r\n        piggyBank += JOIN_AMOUNT;\r\n        producers.push(msg.sender);\r\n    }\r\n\r\n    function obtain_tokens() public payable{\r\n        require(msg.value >= PRICE, \"Not enough value for a token\");\r\n        uint amount = msg.value / PRICE;\r\n        userBalance[msg.sender] += amount;\r\n        emit Acquiring(msg.sender, amount);\r\n    }\r\n\r\n    function tokens_to_ETH(uint amount) public payable{\r\n        require(userBalance[msg.sender] >= amount, \"Not enough tokens to convert\");\r\n        payable(msg.sender).transfer(amount*REVERSE_EXC_VALUE);\r\n        //(bool sent, bytes memory data) = msg.sender.call{value: amount*REVERSE_EXC_VALUE}(\"\");\r\n        //require(sent, \"Failed to send Ether\");\r\n        userBalance[msg.sender] -= amount;\r\n        \r\n    }\r\n\r\n    function self_distruct() public{\r\n        require(msg.sender == minter, \"You're not the minter\");\r\n        selfdestruct(minter);\r\n    }    \r\n\r\n    function sell_energy(uint amount, uint price) public{\r\n        //require(producers.contains(msg.sender), \"You're not a producer\");   non esiste il metodo contains. trovare alternativa\r\n        \r\n        // Verifica che il chiamante sia un produttore\r\n        require(isProducer(msg.sender), \"You're not a producer\");\r\n        // Aggiorna le informazioni sulla vendita dell'energia da parte del produttore\r\n        \r\n        energyList[msg.sender].amount += amount;\r\n        energyList[msg.sender].price = price;\r\n    }\r\n\r\n    // Funzione helper per verificare se un indirizzo  presente nell'array dei produttori\r\n    function isProducer(address addr) private view returns (bool) {\r\n        for (uint i = 0; i < producers.length; i++) {\r\n            if (producers[i] == addr) {\r\n                return true;\r\n            }\r\n        }\r\n        return false;\r\n    }\r\n\r\n\r\n    function buy_energy(uint tokens) public returns (bool result, uint bought_amount){\r\n       \r\n        // prendere il multiple return di find_cheapest \r\n        address[] memory cheapest;\r\n        uint price;\r\n        // address cheapest[] = find_cheapest();\r\n        // price\r\n        \r\n        require(tokens>price, \"Not enough tokens\");\r\n        bought_amount = 0;\r\n        uint i = 0;\r\n        while(tokens > price){\r\n            energyList[cheapest[i]].amount -= 1;\r\n            bought_amount += 1;\r\n            userBalance[cheapest[i]] += price;\r\n            userBalance[msg.sender] -= price;\r\n            tokens -= price;\r\n            i += 1;\r\n            if(i>=cheapest.length) i=0;\r\n        }  \r\n        \r\n        return (true, bought_amount);\r\n    }\r\n\r\n    function find_cheapest() private view returns(address[] memory cheapest, uint price) {\r\n        //ritorna tutti i producers che stanno vendendo ad un minor prezzo in un array e il prezzo\r\n        \r\n        cheapest = new address[](producers.length);\r\n        //inizializzo price con un valore pi alto di quello possibile\r\n        //uint price = 2**256 -1; \r\n\r\n        price = uint(1); //da definire ancora in fase di test se funziona correttamente\r\n\r\n        uint j = 0; //indice per l'array cheapest\r\n        for(uint i = 0; i < producers.length; i++){\r\n\r\n            //prendo il prezzo di vendita del produttore\r\n            uint p = energyList[producers[i]].price;\r\n    \r\n            //se  il pi basso che ho visto fino ad ora, lo mantengo e resetto l'array cheapest\r\n            if(p < price){\r\n                cheapest = new address[](producers.length);\r\n                j = 0;\r\n                price = p;\r\n            }\r\n            \r\n            //se il prezzo  uguale a quello pi basso che ho visto finora lo aggiungo all'array cheapest\r\n            if(p == price){\r\n                cheapest[j] = producers[i];\r\n                j++;\r\n            }\r\n        }\r\n\r\n        return (cheapest, price);\r\n\r\n\r\n        //uint price;\r\n        //address[] cheapest;\r\n        //return(cheapest, price)\r\n    }\r\n\r\n}",
  "sourcePath": "C:\\Users\\simon\\Desktop\\progetto Blockchain\\EnergyHeaven-html\\Dapp-EnergyHeaven\\contracts\\EnergyHeaven.sol",
  "compiler": {
    "name": "solc",
    "version": "0.8.17+commit.8df45f5f.Emscripten.clang"
  },
  "schemaVersion": "3.4.11",
  "updatedAt": "2022-12-31T10:40:13.108Z",
  "devdoc": {
    "kind": "dev",
    "methods": {},
    "version": 1
  },
  "userdoc": {
    "kind": "user",
    "methods": {},
    "version": 1
  }
}