{
  "contractName": "EnergyHeaven",
  "abi": [
    {
      "inputs": [],
      "stateMutability": "nonpayable",
      "type": "constructor"
    },
    {
      "anonymous": false,
      "inputs": [
        {
          "indexed": false,
          "internalType": "address",
          "name": "buyer",
          "type": "address"
        },
        {
          "indexed": false,
          "internalType": "uint256",
          "name": "bought_amount",
          "type": "uint256"
        }
      ],
      "name": "EnergyBought",
      "type": "event"
    },
    {
      "anonymous": false,
      "inputs": [
        {
          "indexed": false,
          "internalType": "address",
          "name": "user",
          "type": "address"
        }
      ],
      "name": "JoinedAsProducer",
      "type": "event"
    },
    {
      "anonymous": false,
      "inputs": [],
      "name": "piggyBankBroken",
      "type": "event"
    },
    {
      "inputs": [],
      "name": "JOIN_AMOUNT",
      "outputs": [
        {
          "internalType": "uint256",
          "name": "",
          "type": "uint256"
        }
      ],
      "stateMutability": "view",
      "type": "function",
      "constant": true
    },
    {
      "inputs": [],
      "name": "OPERATIONS_FOR_REWARDING",
      "outputs": [
        {
          "internalType": "uint256",
          "name": "",
          "type": "uint256"
        }
      ],
      "stateMutability": "view",
      "type": "function",
      "constant": true
    },
    {
      "inputs": [],
      "name": "PRICE",
      "outputs": [
        {
          "internalType": "uint256",
          "name": "",
          "type": "uint256"
        }
      ],
      "stateMutability": "view",
      "type": "function",
      "constant": true
    },
    {
      "inputs": [],
      "name": "REVERSE_EXC_VALUE",
      "outputs": [
        {
          "internalType": "uint256",
          "name": "",
          "type": "uint256"
        }
      ],
      "stateMutability": "view",
      "type": "function",
      "constant": true
    },
    {
      "inputs": [
        {
          "internalType": "address",
          "name": "",
          "type": "address"
        }
      ],
      "name": "energyList",
      "outputs": [
        {
          "internalType": "uint256",
          "name": "amount",
          "type": "uint256"
        },
        {
          "internalType": "uint256",
          "name": "price",
          "type": "uint256"
        }
      ],
      "stateMutability": "view",
      "type": "function",
      "constant": true
    },
    {
      "inputs": [],
      "name": "minter",
      "outputs": [
        {
          "internalType": "address payable",
          "name": "",
          "type": "address"
        }
      ],
      "stateMutability": "view",
      "type": "function",
      "constant": true
    },
    {
      "inputs": [],
      "name": "piggyBank",
      "outputs": [
        {
          "internalType": "uint256",
          "name": "",
          "type": "uint256"
        }
      ],
      "stateMutability": "view",
      "type": "function",
      "constant": true
    },
    {
      "inputs": [
        {
          "internalType": "address",
          "name": "",
          "type": "address"
        }
      ],
      "name": "users",
      "outputs": [
        {
          "internalType": "uint256",
          "name": "selling_history",
          "type": "uint256"
        },
        {
          "internalType": "uint256",
          "name": "balance",
          "type": "uint256"
        },
        {
          "internalType": "uint256",
          "name": "rewards_obt",
          "type": "uint256"
        }
      ],
      "stateMutability": "view",
      "type": "function",
      "constant": true
    },
    {
      "inputs": [],
      "name": "get_my_balance",
      "outputs": [
        {
          "internalType": "uint256",
          "name": "",
          "type": "uint256"
        }
      ],
      "stateMutability": "view",
      "type": "function",
      "constant": true
    },
    {
      "inputs": [],
      "name": "get_my_rewards",
      "outputs": [
        {
          "internalType": "uint256",
          "name": "",
          "type": "uint256"
        }
      ],
      "stateMutability": "view",
      "type": "function",
      "constant": true
    },
    {
      "inputs": [],
      "name": "join_as_producer",
      "outputs": [],
      "stateMutability": "nonpayable",
      "type": "function"
    },
    {
      "inputs": [
        {
          "internalType": "uint256",
          "name": "tokens",
          "type": "uint256"
        }
      ],
      "name": "add_piggyBank",
      "outputs": [],
      "stateMutability": "nonpayable",
      "type": "function"
    },
    {
      "inputs": [],
      "name": "obtain_tokens",
      "outputs": [],
      "stateMutability": "payable",
      "type": "function",
      "payable": true
    },
    {
      "inputs": [
        {
          "internalType": "uint256",
          "name": "amount",
          "type": "uint256"
        }
      ],
      "name": "tokens_to_ETH",
      "outputs": [],
      "stateMutability": "payable",
      "type": "function",
      "payable": true
    },
    {
      "inputs": [],
      "name": "self_distruct",
      "outputs": [],
      "stateMutability": "nonpayable",
      "type": "function"
    },
    {
      "inputs": [
        {
          "internalType": "uint256",
          "name": "amount",
          "type": "uint256"
        },
        {
          "internalType": "uint256",
          "name": "price",
          "type": "uint256"
        }
      ],
      "name": "sell_energy",
      "outputs": [],
      "stateMutability": "nonpayable",
      "type": "function"
    },
    {
      "inputs": [
        {
          "internalType": "uint256",
          "name": "tokens",
          "type": "uint256"
        }
      ],
      "name": "buy_energy",
      "outputs": [
        {
          "internalType": "bool",
          "name": "result",
          "type": "bool"
        },
        {
          "internalType": "uint256",
          "name": "bought_amount",
          "type": "uint256"
        }
      ],
      "stateMutability": "nonpayable",
      "type": "function"
    }
  ],
  "bytecode": "0x608060405234801561001057600080fd5b50336000806101000a81548173ffffffffffffffffffffffffffffffffffffffff021916908373ffffffffffffffffffffffffffffffffffffffff160217905550600060018190555060006002819055506103e8600681905550611ef9806100796000396000f3fe6080604052600436106100fe5760003560e01c8063b75ce37511610095578063d0d3ef3211610064578063d0d3ef32146102e8578063d381e23914610326578063f0d3f5d61461033d578063f505b61f14610368578063f627f78014610393576100fe565b8063b75ce3751461023f578063b7d5d4c01461027d578063bf816977146102a8578063c7b21a4c146102bf576100fe565b8063554669d6116100d1578063554669d61461018e578063868345d9146101b95780638d859f3e146101d5578063a87430ba14610200576100fe565b8063075461721461010357806331724eab1461012e57806331f6ee09146101595780635430b65414610184575b600080fd5b34801561010f57600080fd5b506101186103bc565b6040516101259190611790565b60405180910390f35b34801561013a57600080fd5b506101436103e0565b60405161015091906117c4565b60405180910390f35b34801561016557600080fd5b5061016e6103e5565b60405161017b91906117c4565b60405180910390f35b61018c61042f565b005b34801561019a57600080fd5b506101a36104ec565b6040516101b091906117c4565b60405180910390f35b6101d360048036038101906101ce9190611810565b6104f1565b005b3480156101e157600080fd5b506101ea61062b565b6040516101f791906117c4565b60405180910390f35b34801561020c57600080fd5b506102276004803603810190610222919061187b565b610636565b604051610236939291906118a8565b60405180910390f35b34801561024b57600080fd5b5061026660048036038101906102619190611810565b610660565b6040516102749291906118fa565b60405180910390f35b34801561028957600080fd5b50610292610950565b60405161029f91906117c4565b60405180910390f35b3480156102b457600080fd5b506102bd610956565b005b3480156102cb57600080fd5b506102e660048036038101906102e19190611923565b610a1d565b005b3480156102f457600080fd5b5061030f600480360381019061030a919061187b565b610b94565b60405161031d929190611963565b60405180910390f35b34801561033257600080fd5b5061033b610bb8565b005b34801561034957600080fd5b50610352610e80565b60405161035f91906117c4565b60405180910390f35b34801561037457600080fd5b5061037d610e8b565b60405161038a91906117c4565b60405180910390f35b34801561039f57600080fd5b506103ba60048036038101906103b59190611810565b610ed5565b005b60008054906101000a900473ffffffffffffffffffffffffffffffffffffffff1681565b600581565b6000600460003373ffffffffffffffffffffffffffffffffffffffff1673ffffffffffffffffffffffffffffffffffffffff16815260200190815260200160002060010154905090565b66071afd498d0000341015610479576040517f08c379a0000000000000000000000000000000000000000000000000000000008152600401610470906119e9565b60405180910390fd5b600066071afd498d00003461048e9190611a67565b905080600460003373ffffffffffffffffffffffffffffffffffffffff1673ffffffffffffffffffffffffffffffffffffffff16815260200190815260200160002060010160008282546104e29190611a98565b9250508190555050565b600181565b80600460003373ffffffffffffffffffffffffffffffffffffffff1673ffffffffffffffffffffffffffffffffffffffff168152602001908152602001600020600101541015610576576040517f08c379a000000000000000000000000000000000000000000000000000000000815260040161056d90611b18565b60405180910390fd5b3373ffffffffffffffffffffffffffffffffffffffff166108fc66038d7ea4c68000836105a39190611b38565b9081150290604051600060405180830381858888f193505050501580156105ce573d6000803e3d6000fd5b5080600460003373ffffffffffffffffffffffffffffffffffffffff1673ffffffffffffffffffffffffffffffffffffffff16815260200190815260200160002060010160008282546106219190611b7a565b9250508190555050565b66071afd498d000081565b60046020528060005260406000206000915090508060000154908060010154908060020154905083565b6000806060600061066f610fcf565b80925081935050506001825110156106bc576040517f08c379a00000000000000000000000000000000000000000000000000000000081526004016106b390611bfa565b60405180910390fd5b808510156106ff576040517f08c379a00000000000000000000000000000000000000000000000000000000081526004016106f690611c66565b60405180910390fd5b6000925060005b81861061090b5760006005600085848151811061072657610725611c86565b5b602002602001015173ffffffffffffffffffffffffffffffffffffffff1673ffffffffffffffffffffffffffffffffffffffff1681526020019081526020016000206000015411156108d05760016005600085848151811061078b5761078a611c86565b5b602002602001015173ffffffffffffffffffffffffffffffffffffffff1673ffffffffffffffffffffffffffffffffffffffff16815260200190815260200160002060000160008282546107df9190611b7a565b925050819055506001846107f39190611a98565b9350816004600085848151811061080d5761080c611c86565b5b602002602001015173ffffffffffffffffffffffffffffffffffffffff1673ffffffffffffffffffffffffffffffffffffffff16815260200190815260200160002060010160008282546108619190611a98565b9250508190555081600460003373ffffffffffffffffffffffffffffffffffffffff1673ffffffffffffffffffffffffffffffffffffffff16815260200190815260200160002060010160008282546108ba9190611b7a565b9250508190555081866108cd9190611b7a565b95505b6001816108dd9190611a98565b90506108e883611284565b61090b57600183516108fa9190611b7a565b81111561090657600090505b610706565b7f473096e2da977596760b23740a6dc43e2eb265c5f04c241a147c377d5c543beb338560405161093c929190611cc4565b60405180910390a160019450505050915091565b60065481565b60008054906101000a900473ffffffffffffffffffffffffffffffffffffffff1673ffffffffffffffffffffffffffffffffffffffff163373ffffffffffffffffffffffffffffffffffffffff16146109e4576040517f08c379a00000000000000000000000000000000000000000000000000000000081526004016109db90611d39565b60405180910390fd5b60008054906101000a900473ffffffffffffffffffffffffffffffffffffffff1673ffffffffffffffffffffffffffffffffffffffff16ff5b610a2633611322565b610a65576040517f08c379a0000000000000000000000000000000000000000000000000000000008152600401610a5c90611da5565b60405180910390fd5b81600560003373ffffffffffffffffffffffffffffffffffffffff1673ffffffffffffffffffffffffffffffffffffffff1681526020019081526020016000206000016000828254610ab79190611a98565b9250508190555080600560003373ffffffffffffffffffffffffffffffffffffffff1673ffffffffffffffffffffffffffffffffffffffff1681526020019081526020016000206001018190555081600460003373ffffffffffffffffffffffffffffffffffffffff1673ffffffffffffffffffffffffffffffffffffffff1681526020019081526020016000206000016000828254610b579190611a98565b925050819055508160026000828254610b709190611a98565b925050819055506001806000828254610b899190611a98565b925050819055505050565b60056020528060005260406000206000915090508060000154908060010154905082565b6001600460003373ffffffffffffffffffffffffffffffffffffffff1673ffffffffffffffffffffffffffffffffffffffff168152602001908152602001600020600101541015610c3e576040517f08c379a0000000000000000000000000000000000000000000000000000000008152600401610c3590611c66565b60405180910390fd5b60005b600380549050811015610d14573373ffffffffffffffffffffffffffffffffffffffff1660038281548110610c7957610c78611c86565b5b9060005260206000200160009054906101000a900473ffffffffffffffffffffffffffffffffffffffff1673ffffffffffffffffffffffffffffffffffffffff1603610d01576000610d00576040517f08c379a0000000000000000000000000000000000000000000000000000000008152600401610cf790611e11565b60405180910390fd5b5b8080610d0c90611e31565b915050610c41565b506001600460003373ffffffffffffffffffffffffffffffffffffffff1673ffffffffffffffffffffffffffffffffffffffff1681526020019081526020016000206001016000828254610d689190611b7a565b92505081905550600160066000828254610d829190611a98565b925050819055506003339080600181540180825580915050600190039060005260206000200160009091909190916101000a81548173ffffffffffffffffffffffffffffffffffffffff021916908373ffffffffffffffffffffffffffffffffffffffff1602179055507f4c45db22a5cc3fd4b2149b123f714d3e333762d7aabed8cf3d7ddc77aeafdf5933604051610e1b9190611e79565b60405180910390a16000600460003373ffffffffffffffffffffffffffffffffffffffff1673ffffffffffffffffffffffffffffffffffffffff16815260200190815260200160002060000181905550600560015410610e7e57610e7d6113d0565b5b565b66038d7ea4c6800081565b6000600460003373ffffffffffffffffffffffffffffffffffffffff1673ffffffffffffffffffffffffffffffffffffffff16815260200190815260200160002060020154905090565b80600460003373ffffffffffffffffffffffffffffffffffffffff1673ffffffffffffffffffffffffffffffffffffffff168152602001908152602001600020600101541015610f5a576040517f08c379a0000000000000000000000000000000000000000000000000000000008152600401610f5190611c66565b60405180910390fd5b80600460003373ffffffffffffffffffffffffffffffffffffffff1673ffffffffffffffffffffffffffffffffffffffff1681526020019081526020016000206001016000828254610fac9190611b7a565b925050819055508060066000828254610fc59190611a98565b9250508190555050565b6060600060038054905067ffffffffffffffff811115610ff257610ff1611e94565b5b6040519080825280602002602001820160405280156110205781602001602082028036833780820191505090505b5091507fffffffffffffffffffffffffffffffffffffffffffffffffffffffffffffffff90506000805b60038054905081101561127e576000600560006003848154811061107157611070611c86565b5b9060005260206000200160009054906101000a900473ffffffffffffffffffffffffffffffffffffffff1673ffffffffffffffffffffffffffffffffffffffff1673ffffffffffffffffffffffffffffffffffffffff168152602001908152602001600020600101549050838110801561116b575060006005600060038581548110611100576110ff611c86565b5b9060005260206000200160009054906101000a900473ffffffffffffffffffffffffffffffffffffffff1673ffffffffffffffffffffffffffffffffffffffff1673ffffffffffffffffffffffffffffffffffffffff16815260200190815260200160002060000154115b156111c85760038054905067ffffffffffffffff81111561118f5761118e611e94565b5b6040519080825280602002602001820160405280156111bd5781602001602082028036833780820191505090505b509450600092508093505b83810361126a57600382815481106111e3576111e2611c86565b5b9060005260206000200160009054906101000a900473ffffffffffffffffffffffffffffffffffffffff1685848151811061122157611220611c86565b5b602002602001019073ffffffffffffffffffffffffffffffffffffffff16908173ffffffffffffffffffffffffffffffffffffffff1681525050828061126690611e31565b9350505b50808061127690611e31565b91505061104a565b50509091565b600080600090505b8251811015611317576000600560008584815181106112ae576112ad611c86565b5b602002602001015173ffffffffffffffffffffffffffffffffffffffff1673ffffffffffffffffffffffffffffffffffffffff16815260200190815260200160002060000154111561130457600091505061131d565b808061130f90611e31565b91505061128c565b50600190505b919050565b600080600090505b6003805490508110156113c5578273ffffffffffffffffffffffffffffffffffffffff166003828154811061136257611361611c86565b5b9060005260206000200160009054906101000a900473ffffffffffffffffffffffffffffffffffffffff1673ffffffffffffffffffffffffffffffffffffffff16036113b25760019150506113cb565b80806113bd90611e31565b91505061132a565b50600090505b919050565b60006002546006546113e29190611a67565b905060005b600380549050811015611665576000600460006003848154811061140e5761140d611c86565b5b9060005260206000200160009054906101000a900473ffffffffffffffffffffffffffffffffffffffff1673ffffffffffffffffffffffffffffffffffffffff1673ffffffffffffffffffffffffffffffffffffffff16815260200190815260200160002060000154836114829190611b38565b905080600460006003858154811061149d5761149c611c86565b5b9060005260206000200160009054906101000a900473ffffffffffffffffffffffffffffffffffffffff1673ffffffffffffffffffffffffffffffffffffffff1673ffffffffffffffffffffffffffffffffffffffff16815260200190815260200160002060010160008282546115149190611a98565b92505081905550806006600082825461152d9190611b7a565b925050819055506000600460006003858154811061154e5761154d611c86565b5b9060005260206000200160009054906101000a900473ffffffffffffffffffffffffffffffffffffffff1673ffffffffffffffffffffffffffffffffffffffff1673ffffffffffffffffffffffffffffffffffffffff168152602001908152602001600020600001819055508060046000600385815481106115d3576115d2611c86565b5b9060005260206000200160009054906101000a900473ffffffffffffffffffffffffffffffffffffffff1673ffffffffffffffffffffffffffffffffffffffff1673ffffffffffffffffffffffffffffffffffffffff168152602001908152602001600020600201600082825461164a9190611a98565b9250508190555050808061165d90611e31565b9150506113e7565b5060006001819055507f93169f89b9319ffadca31f03c205d11ecd078d4a6789c857bd83e56b821a804160405160405180910390a180600460003373ffffffffffffffffffffffffffffffffffffffff1673ffffffffffffffffffffffffffffffffffffffff16815260200190815260200160002060010160008282546116ec9190611a98565b9250508190555080600460003373ffffffffffffffffffffffffffffffffffffffff1673ffffffffffffffffffffffffffffffffffffffff16815260200190815260200160002060020160008282546117459190611a98565b9250508190555050565b600073ffffffffffffffffffffffffffffffffffffffff82169050919050565b600061177a8261174f565b9050919050565b61178a8161176f565b82525050565b60006020820190506117a56000830184611781565b92915050565b6000819050919050565b6117be816117ab565b82525050565b60006020820190506117d960008301846117b5565b92915050565b600080fd5b6117ed816117ab565b81146117f857600080fd5b50565b60008135905061180a816117e4565b92915050565b600060208284031215611826576118256117df565b5b6000611834848285016117fb565b91505092915050565b60006118488261174f565b9050919050565b6118588161183d565b811461186357600080fd5b50565b6000813590506118758161184f565b92915050565b600060208284031215611891576118906117df565b5b600061189f84828501611866565b91505092915050565b60006060820190506118bd60008301866117b5565b6118ca60208301856117b5565b6118d760408301846117b5565b949350505050565b60008115159050919050565b6118f4816118df565b82525050565b600060408201905061190f60008301856118eb565b61191c60208301846117b5565b9392505050565b6000806040838503121561193a576119396117df565b5b6000611948858286016117fb565b9250506020611959858286016117fb565b9150509250929050565b600060408201905061197860008301856117b5565b61198560208301846117b5565b9392505050565b600082825260208201905092915050565b7f4e6f7420656e6f7567682076616c756520666f72206120746f6b656e00000000600082015250565b60006119d3601c8361198c565b91506119de8261199d565b602082019050919050565b60006020820190508181036000830152611a02816119c6565b9050919050565b7f4e487b7100000000000000000000000000000000000000000000000000000000600052601260045260246000fd5b7f4e487b7100000000000000000000000000000000000000000000000000000000600052601160045260246000fd5b6000611a72826117ab565b9150611a7d836117ab565b925082611a8d57611a8c611a09565b5b828204905092915050565b6000611aa3826117ab565b9150611aae836117ab565b9250828201905080821115611ac657611ac5611a38565b5b92915050565b7f4e6f7420656e6f75676820746f6b656e7320746f20636f6e7665727400000000600082015250565b6000611b02601c8361198c565b9150611b0d82611acc565b602082019050919050565b60006020820190508181036000830152611b3181611af5565b9050919050565b6000611b43826117ab565b9150611b4e836117ab565b9250828202611b5c816117ab565b91508282048414831517611b7357611b72611a38565b5b5092915050565b6000611b85826117ab565b9150611b90836117ab565b9250828203905081811115611ba857611ba7611a38565b5b92915050565b7f456e65726779206e6f7420617661696c61626c65000000000000000000000000600082015250565b6000611be460148361198c565b9150611bef82611bae565b602082019050919050565b60006020820190508181036000830152611c1381611bd7565b9050919050565b7f4e6f7420656e6f75676820746f6b656e73000000000000000000000000000000600082015250565b6000611c5060118361198c565b9150611c5b82611c1a565b602082019050919050565b60006020820190508181036000830152611c7f81611c43565b9050919050565b7f4e487b7100000000000000000000000000000000000000000000000000000000600052603260045260246000fd5b611cbe8161183d565b82525050565b6000604082019050611cd96000830185611cb5565b611ce660208301846117b5565b9392505050565b7f596f75277265206e6f7420746865206d696e7465720000000000000000000000600082015250565b6000611d2360158361198c565b9150611d2e82611ced565b602082019050919050565b60006020820190508181036000830152611d5281611d16565b9050919050565b7f596f75277265206e6f7420612070726f64756365720000000000000000000000600082015250565b6000611d8f60158361198c565b9150611d9a82611d59565b602082019050919050565b60006020820190508181036000830152611dbe81611d82565b9050919050565b7f416c726561647920612070726f64756365720000000000000000000000000000600082015250565b6000611dfb60128361198c565b9150611e0682611dc5565b602082019050919050565b60006020820190508181036000830152611e2a81611dee565b9050919050565b6000611e3c826117ab565b91507fffffffffffffffffffffffffffffffffffffffffffffffffffffffffffffffff8203611e6e57611e6d611a38565b5b600182019050919050565b6000602082019050611e8e6000830184611cb5565b92915050565b7f4e487b7100000000000000000000000000000000000000000000000000000000600052604160045260246000fdfea26469706673582212209c97b062cb6168faf81b838d50f3b20bfe059801017a576a26af5cd2a7836ec264736f6c63430008110033",
  "immutableReferences": {},
  "source": "// SPDX-License-Identifier: CC-BY-SA-4.0\r\npragma solidity >=0.4.0 <0.9.0;\r\n\r\ncontract EnergyHeaven{\r\n    address payable public minter;\r\n\r\n    uint public constant OPERATIONS_FOR_REWARDING = 5;\r\n    uint private operation_counter;\r\n    uint private total_history;\r\n    struct Users {\r\n        uint selling_history;\r\n        uint balance;\r\n        uint rewards_obt;\r\n    }\r\n\r\n    address[] producers;\r\n    mapping(address => Users) public users; // balance dei token di ogni utente\r\n\r\n\r\n    struct Selling {\r\n        uint amount;\r\n        uint price;\r\n    }\r\n    mapping(address => Selling) public energyList; // listino vendita\r\n\r\n    uint public piggyBank;\r\n\r\n    uint public constant JOIN_AMOUNT = 1; // quota iniziale per entrare a far parte dei venditori\r\n    uint public constant PRICE = 2 * 1e15; // 2 x 10^{15}. IE 2 finney\r\n    uint public constant REVERSE_EXC_VALUE = 1 * 1e15; // 1 x 10^{15}. IE 1 finney\r\n\r\n    event JoinedAsProducer(address user);\r\n    event EnergyBought(address buyer, uint bought_amount);\r\n    event piggyBankBroken();\r\n\r\n    constructor(){\r\n        minter = payable(msg.sender);\r\n        operation_counter = 0;\r\n        total_history = 0;\r\n        piggyBank = 1000;\r\n    }\r\n\r\n    function get_my_balance() public view returns (uint){\r\n        return users[msg.sender].balance;\r\n    }  \r\n\r\n    function get_my_rewards() public view returns (uint){\r\n        return users[msg.sender].rewards_obt;\r\n    }   \r\n\r\n    function join_as_producer() public{\r\n        require(users[msg.sender].balance >= JOIN_AMOUNT, \"Not enough tokens\");\r\n        //require(!producers.contains(msg.sender), \"Already a producer\"); non esiste il metodo contains. trovare alternativa\r\n        \r\n        //scorro array per vedere se esiste indirizzo corrispondente a quello fornito\r\n        for(uint i = 0; i < producers.length; i++){\r\n            if(producers[i] == msg.sender){\r\n                require(false, \"Already a producer\");\r\n            }\r\n        }\r\n        \r\n        users[msg.sender].balance -= JOIN_AMOUNT;\r\n        piggyBank += JOIN_AMOUNT;\r\n        producers.push(msg.sender);\r\n        emit JoinedAsProducer(msg.sender);\r\n        users[msg.sender].selling_history = 0;\r\n\r\n        if(operation_counter >= OPERATIONS_FOR_REWARDING)\r\n            breaking_piggyBank();\r\n    }\r\n\r\n    function breaking_piggyBank() private{\r\n        uint part = piggyBank / total_history;\r\n        for(uint i=0; i<producers.length; i++){\r\n            uint reward = part * users[producers[i]].selling_history;\r\n            users[producers[i]].balance += reward;\r\n            piggyBank -= reward;\r\n            users[producers[i]].selling_history = 0;\r\n            users[producers[i]].rewards_obt += reward;\r\n        }\r\n        operation_counter = 0;\r\n        emit piggyBankBroken();\r\n        users[msg.sender].balance += part;\r\n        users[msg.sender].rewards_obt += part;\r\n    }\r\n\r\n    function add_piggyBank(uint tokens) public{\r\n        require( users[msg.sender].balance >= tokens, \"Not enough tokens\");\r\n        users[msg.sender].balance  -= tokens;\r\n        piggyBank += tokens;\r\n    }   \r\n\r\n    function obtain_tokens() public payable{\r\n        require(msg.value >= PRICE, \"Not enough value for a token\");\r\n        uint amount = msg.value / PRICE;\r\n        users[msg.sender].balance += amount;\r\n    }\r\n\r\n    function tokens_to_ETH(uint amount) public payable{\r\n        require(users[msg.sender].balance  >= amount, \"Not enough tokens to convert\");\r\n        payable(msg.sender).transfer(amount*REVERSE_EXC_VALUE);\r\n        //(bool sent, bytes memory data) = msg.sender.call{value: amount*REVERSE_EXC_VALUE}(\"\");\r\n        //require(sent, \"Failed to send Ether\");\r\n        users[msg.sender].balance  -= amount;\r\n        \r\n    }\r\n\r\n    function self_distruct() public{\r\n        require(msg.sender == minter, \"You're not the minter\");\r\n        selfdestruct(minter);\r\n    }    \r\n\r\n    function sell_energy(uint amount, uint price) public{\r\n        //require(producers.contains(msg.sender), \"You're not a producer\");   non esiste il metodo contains. trovare alternativa\r\n        \r\n        // Verifica che il chiamante sia un produttore\r\n        require(isProducer(msg.sender), \"You're not a producer\");\r\n        // Aggiorna le informazioni sulla vendita dell'energia da parte del produttore\r\n        \r\n        energyList[msg.sender].amount += amount;\r\n        energyList[msg.sender].price = price;\r\n        users[msg.sender].selling_history += amount;\r\n        total_history += amount;\r\n        operation_counter += 1;\r\n    }\r\n\r\n    // Funzione helper per verificare se un indirizzo  presente nell'array dei produttori\r\n    function isProducer(address addr) private view returns (bool) {\r\n        for (uint i = 0; i < producers.length; i++) {\r\n            if (producers[i] == addr) {\r\n                return true;\r\n            }\r\n        }\r\n        return false;\r\n    }\r\n\r\n\r\n    function buy_energy(uint tokens) public returns (bool result, uint bought_amount){\r\n       \r\n        // prendere il multiple return di find_cheapest \r\n        address[] memory cheapest;\r\n        uint price; \r\n        (cheapest,price) = find_cheapest();\r\n        require(cheapest.length>=1, \"Energy not available\");\r\n        require(tokens>=price, \"Not enough tokens\");\r\n\r\n        bought_amount = 0;\r\n        uint i = 0;\r\n        while(tokens >= price){\r\n            if(energyList[cheapest[i]].amount>0){\r\n                energyList[cheapest[i]].amount -= 1;\r\n                bought_amount += 1;\r\n                users[cheapest[i]].balance += price;\r\n                users[msg.sender].balance -= price;\r\n                tokens -= price;\r\n            }\r\n            i +=1;\r\n            if(end_cheapest_energy(cheapest)) break;\r\n            if(i>cheapest.length-1) i=0;\r\n        }  \r\n        \r\n        emit EnergyBought(msg.sender, bought_amount);\r\n        return (true, bought_amount);\r\n    }\r\n\r\n    function end_cheapest_energy(address[] memory cheapest) private view returns(bool){\r\n        for(uint i=0; i<cheapest.length; i++)\r\n            if(energyList[cheapest[i]].amount>0) return false;\r\n        return true;\r\n    }   \r\n\r\n    function find_cheapest() private view returns(address[] memory cheapest, uint price) {\r\n        //ritorna tutti i producers che stanno vendendo ad un minor prezzo in un array e il prezzo\r\n        \r\n        cheapest = new address[](producers.length);\r\n        //inizializzo price con un valore pi alto di quello possibile\r\n        //uint price = 2**256 -1; \r\n\r\n        price = (2**256)-1; //da definire ancora in fase di test se funziona correttamente\r\n\r\n        uint j = 0; //indice per l'array cheapest\r\n        for(uint i = 0; i < producers.length; i++){\r\n\r\n            //prendo il prezzo di vendita del produttore\r\n            uint p = energyList[producers[i]].price;\r\n    \r\n            //se  il pi basso che ho visto fino ad ora, lo mantengo e resetto l'array cheapest\r\n            if(p < price && energyList[producers[i]].amount > 0){\r\n                cheapest = new address[](producers.length);\r\n                j = 0;\r\n                price = p;\r\n            }\r\n            \r\n            //se il prezzo  uguale a quello pi basso che ho visto finora lo aggiungo all'array cheapest\r\n            if(p == price){\r\n                cheapest[j] = producers[i];\r\n                j++;\r\n            }\r\n        }\r\n\r\n        return (cheapest, price);\r\n\r\n\r\n        //uint price;\r\n        //address[] cheapest;\r\n        //return(cheapest, price)\r\n    }\r\n\r\n}",
  "sourcePath": "C:\\xampp\\htdocs\\Dapp-EnergyHeaven\\contracts\\EnergyHeaven.sol",
  "compiler": {
    "name": "solc",
    "version": "0.8.17+commit.8df45f5f.Emscripten.clang"
  },
  "schemaVersion": "3.4.11",
  "updatedAt": "2023-01-10T17:20:47.484Z",
  "networkType": "ethereum",
  "devdoc": {
    "kind": "dev",
    "methods": {},
    "version": 1
  },
  "userdoc": {
    "kind": "user",
    "methods": {},
    "version": 1
  }
}