{
  "contractName": "EnergyHeaven",
  "abi": [
    {
      "inputs": [],
      "stateMutability": "nonpayable",
      "type": "constructor"
    },
    {
      "anonymous": false,
      "inputs": [
        {
          "indexed": false,
          "internalType": "address",
          "name": "buyer",
          "type": "address"
        },
        {
          "indexed": false,
          "internalType": "uint256",
          "name": "bought_amount",
          "type": "uint256"
        }
      ],
      "name": "EnergyBought",
      "type": "event"
    },
    {
      "anonymous": false,
      "inputs": [
        {
          "indexed": false,
          "internalType": "address",
          "name": "user",
          "type": "address"
        }
      ],
      "name": "JoinedAsProducer",
      "type": "event"
    },
    {
      "anonymous": false,
      "inputs": [],
      "name": "piggyBankBroken",
      "type": "event"
    },
    {
      "inputs": [],
      "name": "JOIN_AMOUNT",
      "outputs": [
        {
          "internalType": "uint256",
          "name": "",
          "type": "uint256"
        }
      ],
      "stateMutability": "view",
      "type": "function",
      "constant": true
    },
    {
      "inputs": [],
      "name": "OPERATIONS_FOR_REWARDING",
      "outputs": [
        {
          "internalType": "uint256",
          "name": "",
          "type": "uint256"
        }
      ],
      "stateMutability": "view",
      "type": "function",
      "constant": true
    },
    {
      "inputs": [],
      "name": "PRICE",
      "outputs": [
        {
          "internalType": "uint256",
          "name": "",
          "type": "uint256"
        }
      ],
      "stateMutability": "view",
      "type": "function",
      "constant": true
    },
    {
      "inputs": [],
      "name": "REVERSE_EXC_VALUE",
      "outputs": [
        {
          "internalType": "uint256",
          "name": "",
          "type": "uint256"
        }
      ],
      "stateMutability": "view",
      "type": "function",
      "constant": true
    },
    {
      "inputs": [
        {
          "internalType": "address",
          "name": "",
          "type": "address"
        }
      ],
      "name": "energyList",
      "outputs": [
        {
          "internalType": "uint256",
          "name": "amount",
          "type": "uint256"
        },
        {
          "internalType": "uint256",
          "name": "price",
          "type": "uint256"
        }
      ],
      "stateMutability": "view",
      "type": "function",
      "constant": true
    },
    {
      "inputs": [],
      "name": "minter",
      "outputs": [
        {
          "internalType": "address payable",
          "name": "",
          "type": "address"
        }
      ],
      "stateMutability": "view",
      "type": "function",
      "constant": true
    },
    {
      "inputs": [],
      "name": "piggyBank",
      "outputs": [
        {
          "internalType": "uint256",
          "name": "",
          "type": "uint256"
        }
      ],
      "stateMutability": "view",
      "type": "function",
      "constant": true
    },
    {
      "inputs": [
        {
          "internalType": "address",
          "name": "",
          "type": "address"
        }
      ],
      "name": "users",
      "outputs": [
        {
          "internalType": "uint256",
          "name": "selling_history",
          "type": "uint256"
        },
        {
          "internalType": "uint256",
          "name": "balance",
          "type": "uint256"
        },
        {
          "internalType": "uint256",
          "name": "rewards_obt",
          "type": "uint256"
        }
      ],
      "stateMutability": "view",
      "type": "function",
      "constant": true
    },
    {
      "inputs": [],
      "name": "get_my_balance",
      "outputs": [
        {
          "internalType": "uint256",
          "name": "",
          "type": "uint256"
        }
      ],
      "stateMutability": "view",
      "type": "function",
      "constant": true
    },
    {
      "inputs": [],
      "name": "get_my_rewards",
      "outputs": [
        {
          "internalType": "uint256",
          "name": "",
          "type": "uint256"
        }
      ],
      "stateMutability": "view",
      "type": "function",
      "constant": true
    },
    {
      "inputs": [],
      "name": "join_as_producer",
      "outputs": [],
      "stateMutability": "nonpayable",
      "type": "function"
    },
    {
      "inputs": [
        {
          "internalType": "uint256",
          "name": "tokens",
          "type": "uint256"
        }
      ],
      "name": "add_piggyBank",
      "outputs": [],
      "stateMutability": "nonpayable",
      "type": "function"
    },
    {
      "inputs": [],
      "name": "obtain_tokens",
      "outputs": [],
      "stateMutability": "payable",
      "type": "function",
      "payable": true
    },
    {
      "inputs": [
        {
          "internalType": "uint256",
          "name": "amount",
          "type": "uint256"
        }
      ],
      "name": "tokens_to_ETH",
      "outputs": [],
      "stateMutability": "payable",
      "type": "function",
      "payable": true
    },
    {
      "inputs": [],
      "name": "self_distruct",
      "outputs": [],
      "stateMutability": "nonpayable",
      "type": "function"
    },
    {
      "inputs": [
        {
          "internalType": "uint256",
          "name": "amount",
          "type": "uint256"
        },
        {
          "internalType": "uint256",
          "name": "price",
          "type": "uint256"
        }
      ],
      "name": "sell_energy",
      "outputs": [],
      "stateMutability": "nonpayable",
      "type": "function"
    },
    {
      "inputs": [
        {
          "internalType": "uint256",
          "name": "tokens",
          "type": "uint256"
        }
      ],
      "name": "buy_energy",
      "outputs": [
        {
          "internalType": "bool",
          "name": "result",
          "type": "bool"
        },
        {
          "internalType": "uint256",
          "name": "bought_amount",
          "type": "uint256"
        }
      ],
      "stateMutability": "nonpayable",
      "type": "function"
    }
  ],
  "bytecode": "0x608060405234801561001057600080fd5b50336000806101000a81548173ffffffffffffffffffffffffffffffffffffffff021916908373ffffffffffffffffffffffffffffffffffffffff16021790555060006001819055506103e8600581905550611ea2806100716000396000f3fe6080604052600436106100fe5760003560e01c8063b75ce37511610095578063d0d3ef3211610064578063d0d3ef32146102e8578063d381e23914610326578063f0d3f5d61461033d578063f505b61f14610368578063f627f78014610393576100fe565b8063b75ce3751461023f578063b7d5d4c01461027d578063bf816977146102a8578063c7b21a4c146102bf576100fe565b8063554669d6116100d1578063554669d61461018e578063868345d9146101b95780638d859f3e146101d5578063a87430ba14610200576100fe565b8063075461721461010357806331724eab1461012e57806331f6ee09146101595780635430b65414610184575b600080fd5b34801561010f57600080fd5b506101186103bc565b6040516101259190611739565b60405180910390f35b34801561013a57600080fd5b506101436103e0565b604051610150919061176d565b60405180910390f35b34801561016557600080fd5b5061016e6103e5565b60405161017b919061176d565b60405180910390f35b61018c61042f565b005b34801561019a57600080fd5b506101a36104ec565b6040516101b0919061176d565b60405180910390f35b6101d360048036038101906101ce91906117b9565b6104f1565b005b3480156101e157600080fd5b506101ea61062b565b6040516101f7919061176d565b60405180910390f35b34801561020c57600080fd5b5061022760048036038101906102229190611824565b610636565b60405161023693929190611851565b60405180910390f35b34801561024b57600080fd5b50610266600480360381019061026191906117b9565b610660565b6040516102749291906118a3565b60405180910390f35b34801561028957600080fd5b50610292610950565b60405161029f919061176d565b60405180910390f35b3480156102b457600080fd5b506102bd610956565b005b3480156102cb57600080fd5b506102e660048036038101906102e191906118cc565b610a1d565b005b3480156102f457600080fd5b5061030f600480360381019061030a9190611824565b610b7b565b60405161031d92919061190c565b60405180910390f35b34801561033257600080fd5b5061033b610b9f565b005b34801561034957600080fd5b50610352610e67565b60405161035f919061176d565b60405180910390f35b34801561037457600080fd5b5061037d610e72565b60405161038a919061176d565b60405180910390f35b34801561039f57600080fd5b506103ba60048036038101906103b591906117b9565b610ebc565b005b60008054906101000a900473ffffffffffffffffffffffffffffffffffffffff1681565b600581565b6000600360003373ffffffffffffffffffffffffffffffffffffffff1673ffffffffffffffffffffffffffffffffffffffff16815260200190815260200160002060010154905090565b66071afd498d0000341015610479576040517f08c379a000000000000000000000000000000000000000000000000000000000815260040161047090611992565b60405180910390fd5b600066071afd498d00003461048e9190611a10565b905080600360003373ffffffffffffffffffffffffffffffffffffffff1673ffffffffffffffffffffffffffffffffffffffff16815260200190815260200160002060010160008282546104e29190611a41565b9250508190555050565b600181565b80600360003373ffffffffffffffffffffffffffffffffffffffff1673ffffffffffffffffffffffffffffffffffffffff168152602001908152602001600020600101541015610576576040517f08c379a000000000000000000000000000000000000000000000000000000000815260040161056d90611ac1565b60405180910390fd5b3373ffffffffffffffffffffffffffffffffffffffff166108fc66038d7ea4c68000836105a39190611ae1565b9081150290604051600060405180830381858888f193505050501580156105ce573d6000803e3d6000fd5b5080600360003373ffffffffffffffffffffffffffffffffffffffff1673ffffffffffffffffffffffffffffffffffffffff16815260200190815260200160002060010160008282546106219190611b23565b9250508190555050565b66071afd498d000081565b60036020528060005260406000206000915090508060000154908060010154908060020154905083565b6000806060600061066f610fb6565b80925081935050506001825110156106bc576040517f08c379a00000000000000000000000000000000000000000000000000000000081526004016106b390611ba3565b60405180910390fd5b808510156106ff576040517f08c379a00000000000000000000000000000000000000000000000000000000081526004016106f690611c0f565b60405180910390fd5b6000925060005b81861061090b5760006004600085848151811061072657610725611c2f565b5b602002602001015173ffffffffffffffffffffffffffffffffffffffff1673ffffffffffffffffffffffffffffffffffffffff1681526020019081526020016000206000015411156108d05760016004600085848151811061078b5761078a611c2f565b5b602002602001015173ffffffffffffffffffffffffffffffffffffffff1673ffffffffffffffffffffffffffffffffffffffff16815260200190815260200160002060000160008282546107df9190611b23565b925050819055506001846107f39190611a41565b9350816003600085848151811061080d5761080c611c2f565b5b602002602001015173ffffffffffffffffffffffffffffffffffffffff1673ffffffffffffffffffffffffffffffffffffffff16815260200190815260200160002060010160008282546108619190611a41565b9250508190555081600360003373ffffffffffffffffffffffffffffffffffffffff1673ffffffffffffffffffffffffffffffffffffffff16815260200190815260200160002060010160008282546108ba9190611b23565b9250508190555081866108cd9190611b23565b95505b6001816108dd9190611a41565b90506108e88361126b565b61090b57600183516108fa9190611b23565b81111561090657600090505b610706565b7f473096e2da977596760b23740a6dc43e2eb265c5f04c241a147c377d5c543beb338560405161093c929190611c6d565b60405180910390a160019450505050915091565b60055481565b60008054906101000a900473ffffffffffffffffffffffffffffffffffffffff1673ffffffffffffffffffffffffffffffffffffffff163373ffffffffffffffffffffffffffffffffffffffff16146109e4576040517f08c379a00000000000000000000000000000000000000000000000000000000081526004016109db90611ce2565b60405180910390fd5b60008054906101000a900473ffffffffffffffffffffffffffffffffffffffff1673ffffffffffffffffffffffffffffffffffffffff16ff5b610a2633611309565b610a65576040517f08c379a0000000000000000000000000000000000000000000000000000000008152600401610a5c90611d4e565b60405180910390fd5b81600460003373ffffffffffffffffffffffffffffffffffffffff1673ffffffffffffffffffffffffffffffffffffffff1681526020019081526020016000206000016000828254610ab79190611a41565b9250508190555080600460003373ffffffffffffffffffffffffffffffffffffffff1673ffffffffffffffffffffffffffffffffffffffff1681526020019081526020016000206001018190555081600360003373ffffffffffffffffffffffffffffffffffffffff1673ffffffffffffffffffffffffffffffffffffffff1681526020019081526020016000206000016000828254610b579190611a41565b925050819055506001806000828254610b709190611a41565b925050819055505050565b60046020528060005260406000206000915090508060000154908060010154905082565b6001600360003373ffffffffffffffffffffffffffffffffffffffff1673ffffffffffffffffffffffffffffffffffffffff168152602001908152602001600020600101541015610c25576040517f08c379a0000000000000000000000000000000000000000000000000000000008152600401610c1c90611c0f565b60405180910390fd5b60005b600280549050811015610cfb573373ffffffffffffffffffffffffffffffffffffffff1660028281548110610c6057610c5f611c2f565b5b9060005260206000200160009054906101000a900473ffffffffffffffffffffffffffffffffffffffff1673ffffffffffffffffffffffffffffffffffffffff1603610ce8576000610ce7576040517f08c379a0000000000000000000000000000000000000000000000000000000008152600401610cde90611dba565b60405180910390fd5b5b8080610cf390611dda565b915050610c28565b506001600360003373ffffffffffffffffffffffffffffffffffffffff1673ffffffffffffffffffffffffffffffffffffffff1681526020019081526020016000206001016000828254610d4f9190611b23565b92505081905550600160056000828254610d699190611a41565b925050819055506002339080600181540180825580915050600190039060005260206000200160009091909190916101000a81548173ffffffffffffffffffffffffffffffffffffffff021916908373ffffffffffffffffffffffffffffffffffffffff1602179055507f4c45db22a5cc3fd4b2149b123f714d3e333762d7aabed8cf3d7ddc77aeafdf5933604051610e029190611e22565b60405180910390a16000600360003373ffffffffffffffffffffffffffffffffffffffff1673ffffffffffffffffffffffffffffffffffffffff16815260200190815260200160002060000181905550600560015410610e6557610e646113b7565b5b565b66038d7ea4c6800081565b6000600360003373ffffffffffffffffffffffffffffffffffffffff1673ffffffffffffffffffffffffffffffffffffffff16815260200190815260200160002060020154905090565b80600360003373ffffffffffffffffffffffffffffffffffffffff1673ffffffffffffffffffffffffffffffffffffffff168152602001908152602001600020600101541015610f41576040517f08c379a0000000000000000000000000000000000000000000000000000000008152600401610f3890611c0f565b60405180910390fd5b80600360003373ffffffffffffffffffffffffffffffffffffffff1673ffffffffffffffffffffffffffffffffffffffff1681526020019081526020016000206001016000828254610f939190611b23565b925050819055508060056000828254610fac9190611a41565b9250508190555050565b6060600060028054905067ffffffffffffffff811115610fd957610fd8611e3d565b5b6040519080825280602002602001820160405280156110075781602001602082028036833780820191505090505b5091507fffffffffffffffffffffffffffffffffffffffffffffffffffffffffffffffff90506000805b600280549050811015611265576000600460006002848154811061105857611057611c2f565b5b9060005260206000200160009054906101000a900473ffffffffffffffffffffffffffffffffffffffff1673ffffffffffffffffffffffffffffffffffffffff1673ffffffffffffffffffffffffffffffffffffffff16815260200190815260200160002060010154905083811080156111525750600060046000600285815481106110e7576110e6611c2f565b5b9060005260206000200160009054906101000a900473ffffffffffffffffffffffffffffffffffffffff1673ffffffffffffffffffffffffffffffffffffffff1673ffffffffffffffffffffffffffffffffffffffff16815260200190815260200160002060000154115b156111af5760028054905067ffffffffffffffff81111561117657611175611e3d565b5b6040519080825280602002602001820160405280156111a45781602001602082028036833780820191505090505b509450600092508093505b83810361125157600282815481106111ca576111c9611c2f565b5b9060005260206000200160009054906101000a900473ffffffffffffffffffffffffffffffffffffffff1685848151811061120857611207611c2f565b5b602002602001019073ffffffffffffffffffffffffffffffffffffffff16908173ffffffffffffffffffffffffffffffffffffffff1681525050828061124d90611dda565b9350505b50808061125d90611dda565b915050611031565b50509091565b600080600090505b82518110156112fe5760006004600085848151811061129557611294611c2f565b5b602002602001015173ffffffffffffffffffffffffffffffffffffffff1673ffffffffffffffffffffffffffffffffffffffff1681526020019081526020016000206000015411156112eb576000915050611304565b80806112f690611dda565b915050611273565b50600190505b919050565b600080600090505b6002805490508110156113ac578273ffffffffffffffffffffffffffffffffffffffff166002828154811061134957611348611c2f565b5b9060005260206000200160009054906101000a900473ffffffffffffffffffffffffffffffffffffffff1673ffffffffffffffffffffffffffffffffffffffff16036113995760019150506113b2565b80806113a490611dda565b915050611311565b50600090505b919050565b60008060005b60028054905081101561146b5760036000600283815481106113e2576113e1611c2f565b5b9060005260206000200160009054906101000a900473ffffffffffffffffffffffffffffffffffffffff1673ffffffffffffffffffffffffffffffffffffffff1673ffffffffffffffffffffffffffffffffffffffff16815260200190815260200160002060000154826114569190611a41565b9150808061146390611dda565b9150506113bd565b508060055461147a9190611a10565b915060005b60028054905081101561166657600060036000600284815481106114a6576114a5611c2f565b5b9060005260206000200160009054906101000a900473ffffffffffffffffffffffffffffffffffffffff1673ffffffffffffffffffffffffffffffffffffffff1673ffffffffffffffffffffffffffffffffffffffff168152602001908152602001600020600001548461151a9190611ae1565b905080600360006002858154811061153557611534611c2f565b5b9060005260206000200160009054906101000a900473ffffffffffffffffffffffffffffffffffffffff1673ffffffffffffffffffffffffffffffffffffffff1673ffffffffffffffffffffffffffffffffffffffff16815260200190815260200160002060010160008282546115ac9190611a41565b9250508190555080600560008282546115c59190611b23565b92505081905550600060036000600285815481106115e6576115e5611c2f565b5b9060005260206000200160009054906101000a900473ffffffffffffffffffffffffffffffffffffffff1673ffffffffffffffffffffffffffffffffffffffff1673ffffffffffffffffffffffffffffffffffffffff1681526020019081526020016000206000018190555050808061165e90611dda565b91505061147f565b5060006001819055507f93169f89b9319ffadca31f03c205d11ecd078d4a6789c857bd83e56b821a804160405160405180910390a181600360003373ffffffffffffffffffffffffffffffffffffffff1673ffffffffffffffffffffffffffffffffffffffff16815260200190815260200160002060010160008282546116ed9190611a41565b925050819055505050565b600073ffffffffffffffffffffffffffffffffffffffff82169050919050565b6000611723826116f8565b9050919050565b61173381611718565b82525050565b600060208201905061174e600083018461172a565b92915050565b6000819050919050565b61176781611754565b82525050565b6000602082019050611782600083018461175e565b92915050565b600080fd5b61179681611754565b81146117a157600080fd5b50565b6000813590506117b38161178d565b92915050565b6000602082840312156117cf576117ce611788565b5b60006117dd848285016117a4565b91505092915050565b60006117f1826116f8565b9050919050565b611801816117e6565b811461180c57600080fd5b50565b60008135905061181e816117f8565b92915050565b60006020828403121561183a57611839611788565b5b60006118488482850161180f565b91505092915050565b6000606082019050611866600083018661175e565b611873602083018561175e565b611880604083018461175e565b949350505050565b60008115159050919050565b61189d81611888565b82525050565b60006040820190506118b86000830185611894565b6118c5602083018461175e565b9392505050565b600080604083850312156118e3576118e2611788565b5b60006118f1858286016117a4565b9250506020611902858286016117a4565b9150509250929050565b6000604082019050611921600083018561175e565b61192e602083018461175e565b9392505050565b600082825260208201905092915050565b7f4e6f7420656e6f7567682076616c756520666f72206120746f6b656e00000000600082015250565b600061197c601c83611935565b915061198782611946565b602082019050919050565b600060208201905081810360008301526119ab8161196f565b9050919050565b7f4e487b7100000000000000000000000000000000000000000000000000000000600052601260045260246000fd5b7f4e487b7100000000000000000000000000000000000000000000000000000000600052601160045260246000fd5b6000611a1b82611754565b9150611a2683611754565b925082611a3657611a356119b2565b5b828204905092915050565b6000611a4c82611754565b9150611a5783611754565b9250828201905080821115611a6f57611a6e6119e1565b5b92915050565b7f4e6f7420656e6f75676820746f6b656e7320746f20636f6e7665727400000000600082015250565b6000611aab601c83611935565b9150611ab682611a75565b602082019050919050565b60006020820190508181036000830152611ada81611a9e565b9050919050565b6000611aec82611754565b9150611af783611754565b9250828202611b0581611754565b91508282048414831517611b1c57611b1b6119e1565b5b5092915050565b6000611b2e82611754565b9150611b3983611754565b9250828203905081811115611b5157611b506119e1565b5b92915050565b7f456e65726779206e6f7420617661696c61626c65000000000000000000000000600082015250565b6000611b8d601483611935565b9150611b9882611b57565b602082019050919050565b60006020820190508181036000830152611bbc81611b80565b9050919050565b7f4e6f7420656e6f75676820746f6b656e73000000000000000000000000000000600082015250565b6000611bf9601183611935565b9150611c0482611bc3565b602082019050919050565b60006020820190508181036000830152611c2881611bec565b9050919050565b7f4e487b7100000000000000000000000000000000000000000000000000000000600052603260045260246000fd5b611c67816117e6565b82525050565b6000604082019050611c826000830185611c5e565b611c8f602083018461175e565b9392505050565b7f596f75277265206e6f7420746865206d696e7465720000000000000000000000600082015250565b6000611ccc601583611935565b9150611cd782611c96565b602082019050919050565b60006020820190508181036000830152611cfb81611cbf565b9050919050565b7f596f75277265206e6f7420612070726f64756365720000000000000000000000600082015250565b6000611d38601583611935565b9150611d4382611d02565b602082019050919050565b60006020820190508181036000830152611d6781611d2b565b9050919050565b7f416c726561647920612070726f64756365720000000000000000000000000000600082015250565b6000611da4601283611935565b9150611daf82611d6e565b602082019050919050565b60006020820190508181036000830152611dd381611d97565b9050919050565b6000611de582611754565b91507fffffffffffffffffffffffffffffffffffffffffffffffffffffffffffffffff8203611e1757611e166119e1565b5b600182019050919050565b6000602082019050611e376000830184611c5e565b92915050565b7f4e487b7100000000000000000000000000000000000000000000000000000000600052604160045260246000fdfea26469706673582212207a56e1135f2cb0c2ad6be3cbf25fd83acdd841ecf475b55844b4e44b07b773a164736f6c63430008110033",
  "immutableReferences": {},
  "source": "// SPDX-License-Identifier: CC-BY-SA-4.0\r\npragma solidity >=0.4.0 <0.9.0;\r\n\r\ncontract EnergyHeaven{\r\n    address payable public minter;\r\n\r\n    uint public constant OPERATIONS_FOR_REWARDING = 5;\r\n    uint private operation_counter;\r\n    struct Users {\r\n        uint selling_history;\r\n        uint balance;\r\n        uint rewards_obt;\r\n    }\r\n\r\n    address[] producers;\r\n    mapping(address => Users) public users; // balance dei token di ogni utente\r\n\r\n\r\n    struct Selling {\r\n        uint amount;\r\n        uint price;\r\n    }\r\n    mapping(address => Selling) public energyList; // listino vendita\r\n\r\n    uint public piggyBank;\r\n\r\n    uint public constant JOIN_AMOUNT = 1; // quota iniziale per entrare a far parte dei venditori\r\n    uint public constant PRICE = 2 * 1e15; // 2 x 10^{15}. IE 2 finney\r\n    uint public constant REVERSE_EXC_VALUE = 1 * 1e15; // 1 x 10^{15}. IE 1 finney\r\n\r\n    event JoinedAsProducer(address user);\r\n    event EnergyBought(address buyer, uint bought_amount);\r\n    event piggyBankBroken();\r\n\r\n    constructor(){\r\n        minter = payable(msg.sender);\r\n        operation_counter = 0;\r\n        piggyBank = 1000;\r\n    }\r\n\r\n    function get_my_balance() public view returns (uint){\r\n        return users[msg.sender].balance;\r\n    }  \r\n\r\n    function get_my_rewards() public view returns (uint){\r\n        return users[msg.sender].rewards_obt;\r\n    }   \r\n\r\n    function join_as_producer() public{\r\n        require(users[msg.sender].balance >= JOIN_AMOUNT, \"Not enough tokens\");\r\n        //require(!producers.contains(msg.sender), \"Already a producer\"); non esiste il metodo contains. trovare alternativa\r\n        \r\n        //scorro array per vedere se esiste indirizzo corrispondente a quello fornito\r\n        for(uint i = 0; i < producers.length; i++){\r\n            if(producers[i] == msg.sender){\r\n                require(false, \"Already a producer\");\r\n            }\r\n        }\r\n        \r\n        users[msg.sender].balance -= JOIN_AMOUNT;\r\n        piggyBank += JOIN_AMOUNT;\r\n        producers.push(msg.sender);\r\n        emit JoinedAsProducer(msg.sender);\r\n        users[msg.sender].selling_history = 0;\r\n\r\n        if(operation_counter >= OPERATIONS_FOR_REWARDING)\r\n            breaking_piggyBank();\r\n    }\r\n\r\n    function breaking_piggyBank() private{\r\n        uint part = 0;\r\n        uint total_history = 0;\r\n        for(uint i=0; i<producers.length; i++){\r\n            total_history += users[producers[i]].selling_history;\r\n        }\r\n        part = piggyBank / total_history;\r\n        for(uint i=0; i<producers.length; i++){\r\n            uint reward = part * users[producers[i]].selling_history;\r\n            users[producers[i]].balance += reward;\r\n            piggyBank -= reward;\r\n            users[producers[i]].selling_history = 0;\r\n        }\r\n        operation_counter = 0;\r\n        emit piggyBankBroken();\r\n        users[msg.sender].balance += part;\r\n    }\r\n\r\n    function add_piggyBank(uint tokens) public{\r\n        require( users[msg.sender].balance >= tokens, \"Not enough tokens\");\r\n        users[msg.sender].balance  -= tokens;\r\n        piggyBank += tokens;\r\n    }   \r\n\r\n    function obtain_tokens() public payable{\r\n        require(msg.value >= PRICE, \"Not enough value for a token\");\r\n        uint amount = msg.value / PRICE;\r\n        users[msg.sender].balance += amount;\r\n    }\r\n\r\n    function tokens_to_ETH(uint amount) public payable{\r\n        require(users[msg.sender].balance  >= amount, \"Not enough tokens to convert\");\r\n        payable(msg.sender).transfer(amount*REVERSE_EXC_VALUE);\r\n        //(bool sent, bytes memory data) = msg.sender.call{value: amount*REVERSE_EXC_VALUE}(\"\");\r\n        //require(sent, \"Failed to send Ether\");\r\n        users[msg.sender].balance  -= amount;\r\n        \r\n    }\r\n\r\n    function self_distruct() public{\r\n        require(msg.sender == minter, \"You're not the minter\");\r\n        selfdestruct(minter);\r\n    }    \r\n\r\n    function sell_energy(uint amount, uint price) public{\r\n        //require(producers.contains(msg.sender), \"You're not a producer\");   non esiste il metodo contains. trovare alternativa\r\n        \r\n        // Verifica che il chiamante sia un produttore\r\n        require(isProducer(msg.sender), \"You're not a producer\");\r\n        // Aggiorna le informazioni sulla vendita dell'energia da parte del produttore\r\n        \r\n        energyList[msg.sender].amount += amount;\r\n        energyList[msg.sender].price = price;\r\n        users[msg.sender].selling_history += amount;\r\n        operation_counter += 1;\r\n    }\r\n\r\n    // Funzione helper per verificare se un indirizzo  presente nell'array dei produttori\r\n    function isProducer(address addr) private view returns (bool) {\r\n        for (uint i = 0; i < producers.length; i++) {\r\n            if (producers[i] == addr) {\r\n                return true;\r\n            }\r\n        }\r\n        return false;\r\n    }\r\n\r\n\r\n    function buy_energy(uint tokens) public returns (bool result, uint bought_amount){\r\n       \r\n        // prendere il multiple return di find_cheapest \r\n        address[] memory cheapest;\r\n        uint price; \r\n        (cheapest,price) = find_cheapest();\r\n        require(cheapest.length>=1, \"Energy not available\");\r\n        require(tokens>=price, \"Not enough tokens\");\r\n\r\n        bought_amount = 0;\r\n        uint i = 0;\r\n        while(tokens >= price){\r\n            if(energyList[cheapest[i]].amount>0){\r\n                energyList[cheapest[i]].amount -= 1;\r\n                bought_amount += 1;\r\n                users[cheapest[i]].balance += price;\r\n                users[msg.sender].balance -= price;\r\n                tokens -= price;\r\n            }\r\n            i +=1;\r\n            if(end_cheapest_energy(cheapest)) break;\r\n            if(i>cheapest.length-1) i=0;\r\n        }  \r\n        \r\n        emit EnergyBought(msg.sender, bought_amount);\r\n        return (true, bought_amount);\r\n    }\r\n\r\n    function end_cheapest_energy(address[] memory cheapest) private view returns(bool){\r\n        for(uint i=0; i<cheapest.length; i++)\r\n            if(energyList[cheapest[i]].amount>0) return false;\r\n        return true;\r\n    }   \r\n\r\n    function find_cheapest() private view returns(address[] memory cheapest, uint price) {\r\n        //ritorna tutti i producers che stanno vendendo ad un minor prezzo in un array e il prezzo\r\n        \r\n        cheapest = new address[](producers.length);\r\n        //inizializzo price con un valore pi alto di quello possibile\r\n        //uint price = 2**256 -1; \r\n\r\n        price = (2**256)-1; //da definire ancora in fase di test se funziona correttamente\r\n\r\n        uint j = 0; //indice per l'array cheapest\r\n        for(uint i = 0; i < producers.length; i++){\r\n\r\n            //prendo il prezzo di vendita del produttore\r\n            uint p = energyList[producers[i]].price;\r\n    \r\n            //se  il pi basso che ho visto fino ad ora, lo mantengo e resetto l'array cheapest\r\n            if(p < price && energyList[producers[i]].amount > 0){\r\n                cheapest = new address[](producers.length);\r\n                j = 0;\r\n                price = p;\r\n            }\r\n            \r\n            //se il prezzo  uguale a quello pi basso che ho visto finora lo aggiungo all'array cheapest\r\n            if(p == price){\r\n                cheapest[j] = producers[i];\r\n                j++;\r\n            }\r\n        }\r\n\r\n        return (cheapest, price);\r\n\r\n\r\n        //uint price;\r\n        //address[] cheapest;\r\n        //return(cheapest, price)\r\n    }\r\n\r\n}",
  "sourcePath": "C:\\Users\\simon\\Desktop\\progetto Blockchain\\EnergyHeaven\\Dapp-EnergyHeaven\\contracts\\EnergyHeaven.sol",
  "compiler": {
    "name": "solc",
    "version": "0.8.17+commit.8df45f5f.Emscripten.clang"
  },
  "schemaVersion": "3.4.11",
  "updatedAt": "2023-01-07T18:21:24.404Z",
  "networkType": "ethereum",
  "devdoc": {
    "kind": "dev",
    "methods": {},
    "version": 1
  },
  "userdoc": {
    "kind": "user",
    "methods": {},
    "version": 1
  }
}